:020000040800F2
:10000000008001209D020008E5870008E9870008BC
:10001000ED870008F1870008F58700080000000060
:10002000000000000000000000000000F987000848
:10003000FD8700080000000001880008058800080E
:10004000BD700008BD700008BD700008BD700008DC
:10005000BD700008BD700008BD700008BD700008CC
:10006000BD700008BD70000809890008BD70000857
:10007000BD700008BD700008BD700008BD700008AC
:10008000BD700008BD700008BD700008BD7000089C
:10009000BD700008BD700008BD700008BD7000088C
:1000A000BD700008BD70000879880008BD700008A8
:1000B000BD700008BD700008BD700008A988000868
:1000C000BD700008BD700008BD700008B988000848
:1000D000C9880008218800081188000829880008BC
:1000E0003189000895880008BD700008BD700008BF
:1000F000BD700008BD700008BD700008BD7000082C
:10010000BD700008BD700008BD700008D9880008E7
:1001100039880008BD700008498800085588000823
:10012000F9880008E9880008BD700008BD70000863
:10013000BD700008BD700008BD700008BD700008EB
:10014000BD700008BD700008BD70000899880008E7
:10015000BD700008BD70000825880008BD7000084B
:10016000BD700008BD700008BD700008BD700008BB
:10017000BD700008BD700008BD70000800000000E0
:10018000BD700008BD70000800B583B006F00EFF1A
:10019000304B314A1360314A1360314B314A03E02E
:1001A00011681960043304322F498B42F8D32A4B6B
:1001B0001A682E4B9A4204D1284B1A682C4B9A424B
:1001C00000D0FEE7234B2B4A13602B4A13602B4BC6
:1001D00002E000221A600433294A9342F9D3254BE6
:1001E0001B6813B9244B1B6803B1FEE706F0EAFE57
:1001F000694601A806F0B6FE224C234B1C1BA41036
:10020000002504E01F4B53F8253098470135AC42D8
:10021000F8DC1E4C1E4B1C1BA410002504E01B4BDD
:1002200053F8253098470135AC42F8DC0099019825
:1002300008F004F80546174C174B1C1BA41004E0EB
:10024000013C144B53F824309847002CF8DC284626
:1002500006F064FEBABADECA000000204C0300209B
:1002600000000020B0C90008500300207856341266
:100270003254769850030020B06C002050030020C8
:10028000B46C0020C8030008C8030008C8030008B5
:10029000C8030008C8030008C803000808B5FFF732
:1002A00073FF00BF00BEFEE71EF0040F0CBFEFF3AC
:1002B0000880EFF309807146364A10472DE9F04176
:1002C00082B004468846084B5E6B9F6B9D6A074868
:1002D00006F050FECDF800803B46324629462046C7
:1002E00006F074FE00BEFEE700ED00E004BB00086F
:1002F00000BEFEE71EF0040F0CBFEFF30880EFF323
:1003000009807146244A10472DE9F04182B0044625
:100310008846084B5E6B9F6B9D6A074806F02AFE75
:10032000CDF800803B4632462946204606F04EFE78
:1003300000BEFEE700ED00E014BB00081EF0040F55
:100340000CBFEFF30880EFF309807146134A1047A2
:100350002DE9F04182B004468846084B5E6B9F6BE6
:100360009D6A074806F006FECDF800803B463246FF
:100370002946204606F02AFE00BEFEE700ED00E01A
:1003800020BB000800BEFEE700BEFEE700BEFEE7A1
:1003900070470000BD02000809030008510300086F
:1003A000B0C900080000002050030020B0C90008B8
:1003B000000000100000001050030020B46C00206A
:0803C000000000100000001015
:1003D00098B108B50346D0F8140210B10020C3F854
:1003E000140209B1C3F810121846012380F8FC3139
:1003F000027009F0FBFA002008BD0220704700BF20
:1004000019B1C0F81412002070470220704700BFD5
:1004100008B509F029FB002008BD00BF08B5D0F8D9
:10042000143223B11B68984718B1022008BD02207E
:1004300008BD002008BD00BF08B5D0F814325B68C5
:100440009847002008BD00BF38B5044600F5027586
:10045000284600F01DF90123C4F8F431B4F80E3237
:10046000C4F8F83194F8081201F01F03012B08D0EA
:1004700013B1022B0AD00EE02946204600F090FA74
:100480000EE02946204600F0AFFA09E02946204652
:1004900000F0C6FA04E001F08001204609F006FBF6
:1004A000002038BD10B5044611BB1346D0F8F42126
:1004B000032A28D1D0F80C11D0F8102191420AD982
:1004C000891AC0F80C118A4228BF0A4692B219460E
:1004D00000F078FB17E0D0F814321B6923B190F8D4
:1004E000FC21032A00D19847204600F073FB0AE064
:1004F0000A46D0F814329B692BB190F8FC110329FD
:1005000001D111469847002010BD00BF10B5044628
:10051000002943D11346D0F8F421022A36D1C1690B
:10052000026A91420CD98A1AC26192B2194600F04D
:1005300031FB00231A461946204609F0EFFA25E060
:100540008169B1FBF2F302FB131393B98A4210D80D
:10055000D0F8F83199420CD20022114600F01AFB73
:100560000021C4F8F8110B460A46204609F0D6FAD5
:100570000CE0D4F81432DB682BB194F8FC21032A88
:1005800001D120469847204600F030FB94F8003215
:10059000012B0ED1002384F800320AE00A46D0F87D
:1005A00014325B692BB190F8FC11032901D111467B
:1005B0009847002010BD00BF38B5044640230022F4
:1005C000114609F059FA4025C4F810512B46002273
:1005D0008021204609F050FA2562012384F8FC317D
:1005E000D4F818322BB1D4F814325B682179204644
:1005F0009847002038BD00BF01740020704700BF3D
:1006000090F8FC3180F8FD31042380F8FC310020A3
:10061000704700BF90F8FD3180F8FC310020704732
:1006200008B590F8FC31032B04D1D0F81432DB6903
:1006300003B19847002008BD002070470020704794
:100640000020704708B5012280F8FC21D0F8142260
:10065000526801799047002008BD00BF0346002082
:1006600002E00130C0B201331A78002AF9D1704794
:100670004B88012B0BD110B50446C0F80432D0F8DA
:1006800014329B689847204600F0A4FA10BD7047CA
:100690000B7803704B7843708B78CA7803EB022396
:1006A00043800B794A7903EB022383808B79CA79E3
:1006B00003EB0223C380704710B50446802109F084
:1006C000F5F90021204609F0F1F910BD30B583B0ED
:1006D00004460D464A88130A013B0E2B00F2868021
:1006E000DFE803F010182C84846875848484848483
:1006F00084840800D0F81032DB690DF10601007C1B
:10070000984777E0D0F810321B680DF10601007CA5
:1007100098476FE0037C43B9D0F814329B6A0DF11F
:10072000060098470223437064E0D0F81432DB6A75
:100730000DF106009847022343705BE0D2B2052A10
:1007400034D8DFE802F0030B131B232BD0F8103250
:100750005B680DF10601007C98474BE0D0F8103241
:100760009B680DF10601007C984743E0D0F81032F9
:10077000DB680DF10601007C98473BE0D0F81032B1
:100780001B690DF10601007C984733E0D0F8103268
:100790005B690DF10601007C98472BE0D0F8103220
:1007A0009B690DF10601007C984723E02946FFF77D
:1007B00083FF2DE0037C33B9D0F814325B6B0DF16D
:1007C0000600984716E02946FFF776FF20E0037CF5
:1007D00043B9D0F814321B6B0DF10600984707237C
:1007E000437007E02946FFF767FF11E02946FFF74E
:1007F00063FF0DE0BDF8063053B1EA8842B19A427A
:1008000028BF1A46ADF806200146204600F0B4F98C
:1008100003B030BD38B504468B88E3B9CB88D3B973
:100820008D7805F07F0590F8FC31032B02D1FFF79E
:1008300043FF38BD80F8FE51294609F05FF9204694
:1008400000F0C8F91DB1022384F8FC3138BD012342
:1008500084F8FC3138BD2046FFF72EFF38BD00BFBD
:1008600038B504460D468978264B1970012903D9FD
:100870002946FFF721FF38BD90F8FC31022B02D04A
:10088000032B15D039E081B14160032380F8FC319E
:10089000FFF7C4FD022804D129462046FFF70CFFCC
:1008A00038BD204600F096F938BD00F093F938BD08
:1008B00049B9022380F8FC314160FFF7BDFD2046B5
:1008C00000F088F938BD4368994213D0D9B2FFF7D8
:1008D000B3FD0C4B197861602046FFF79FFD02289D
:1008E00004D129462046FFF7E7FE38BD204600F038
:1008F00071F938BD00F06EF938BD2946FFF7DCFE0E
:1009000038BD00BF5403002008B5CB88012B02D0AE
:10091000FFF7D2FE08BD90F8FC31022B02D0032B6A
:1009200008D00CE00146002341F8083F012200F006
:1009300023F908BD0122011D00F01EF908BDFFF7D3
:10094000BBFE08BD08B590F8FC31023B012B0CD86A
:100950000023C360D0F804320BB10223C36002222B
:1009600000F10C0100F008F908BDFFF7A5FE08BD75
:1009700010B5044690F8FC31023B012B0DD84B8892
:10098000012B0CD10023C0F80432D0F814329B683C
:100990009847204600F01EF910BDFFF78DFE10BDF0
:1009A00008B54B78092B1BD8DFE803F011171A1490
:1009B0001A08051A0E0BFFF789FE13E0FFF72AFF4E
:1009C00010E0FFF74DFF0DE0FFF79EFF0AE0FFF795
:1009D000B9FF07E0FFF74CFE04E0FFF7C9FF01E0B5
:1009E000FFF76AFE002008BD38B504460D4690F8B2
:1009F000FC31032B0FD10B79042B09D8D0F814321A
:100A00009B689847EB8843B9204600F0E3F804E080
:100A1000FFF752FE01E0FFF74FFE002038BD00BF98
:100A200038B505460C468A880B7803F06003202B06
:100A300004D1D0F814329B6898477DE0D1B2637836
:100A4000012B26D0002B48D0032B75D190F8FC3118
:100A5000022B02D0032B07D017E000296CD080298D
:100A60006AD009F023F867E0638823B919B18029B7
:100A700001D009F01BF8D5F814329B6821462846AE
:100A80009847284600F0A6F856E02146FFF714FEE6
:100A900052E090F8FC31022B02D0032B07D018E073
:100AA000002949D0802947D009F000F844E0638844
:100AB000002B41D111F07F0F07D008F0FFFFD5F8D0
:100AC00014329B68214628469847284600F082F851
:100AD00032E02146FFF7F0FD2EE090F8FC31022BCA
:100AE00002D0032B06D024E011F07F0F24D008F0B1
:100AF000DDFF21E012F0800F06D001F07F04013409
:100B000000EB0414043405E001F07F04103400EB22
:100B100004140434284608F0D9FF10B101232360DF
:100B200001E00023236002222146284600F024F839
:100B300002E02146FFF7C0FD002038BDD0B170B5FE
:100B40000D4616460446FFF789FD0130400080B28D
:100B50003080287003236B70022307E05A1CD2B246
:100B60000134E9540233DBB20021A9542178002971
:100B7000F4D170BD704700BF10B513460222C0F813
:100B8000F4218361C3610A46002108F0BFFF002001
:100B900010BD00BF08B513460A46002108F0B6FF95
:100BA000002008BD10B513460322C0F8F421C0F898
:100BB0000831C0F80C310A46002108F0AFFF0020D0
:100BC00010BD00BF08B513460A46002108F0A6FF75
:100BD000002008BD08B50423C0F8F43100231A46EC
:100BE000194608F093FF002008BD00BF08B5052393
:100BF000C0F8F43100231A46194608F08FFF002090
:100C000008BD00BF38B50546D0F8184242F21803B7
:100C1000E35C43B942F21403E35823B1637A13B996
:100C2000012108F043FF8121284608F03FFF637A45
:100C3000022B07D11F2304F500520C320121284654
:100C400008F06CFF38BD00BF38B5D0F8184242F24A
:100C50001403E3589A4228BF1A4693B242F234056D
:100C60006259D21A6251002542F23802A554042278
:100C700022720A46812108F049FF38BD38B5044682
:100C8000D0F81852D0F81C321B6800202872687205
:100C900042F25D02A85442F25C02A8541B689847D5
:100CA0000121204608F0FAFE8121204608F0F6FED8
:100CB0001F2305F500520C320121204608F02EFFBB
:100CC00038BD00BF08B5D0F81822002313720121E7
:100CD00051721F2302F500520C3208F01FFF08BDAD
:100CE000D0F8183200221A72704700BF38B5054696
:100CF000D0F8184242F22C020A4BA35042F23803B9
:100D0000E154002323720D232244812108F0FEFECA
:100D10001F2304F500520C320121284608F0FEFE84
:100D200038BD00BF5553425310B50446D0F81812D1
:100D30000B7A022B03D014D3042B0FD910BD01F56D
:100D400000521B3242F21903C95C00F0A7FB0028D5
:100D500007DA01212046FFF7C9FF10BD0021FFF788
:100D6000C5FF10BD38B50546D0F8184242F2100351
:100D7000E25842F23003E25042F21403E25842F2E7
:100D80003403E250012108F0D1FE1F2810D142F2B5
:100D90000C03E258214B9A420AD142F21903E15C5A
:100DA000012905D842F21A03E35C0BB1102B0DD9CF
:100DB0002023052242F21901615C284600F0ECF87C
:100DC000022363722846FFF71DFF38BD04F5005269
:100DD0001B32284600F062FB00280BDA237A052B31
:100DE00004D101212846FFF781FF38BD2846FFF7CF
:100DF00009FF38BD237A013BDBB2022B0CD9628993
:100E00002AB104F10C012846FFF71EFF38BD1AB9BC
:100E100000212846FFF76AFF38BD00BF5553424303
:100E200010B50446D0F818321A7A12B1012A03D04C
:100E300010BDFFF797FF10BD03F500521B3242F2C1
:100E40001901595C00F02AFB002803DA0121204631
:100E5000FFF74CFF10BD00BF10B5D0F81842637A01
:100E6000022B05D1812108F021FE0023637210BD01
:100E700011F0800F04D0012B02D00121FFF736FFC3
:100E800010BD00BF10B4D0F81842D0F81C3218685A
:100E9000537813F0010F0BD1C06901EBC1018B0036
:100EA0001844017905311379994203D20B4601E0C8
:100EB00007230648638104E0013B9BB2C15CE21852
:100EC0001173002BF8D1002010BC7047C8B900087E
:100ED000D0F818020823438105E0013B9BB2044A85
:100EE000D15CC2181173002BF7D10020704700BFEE
:100EF000D8B90008D0F818020823438105E0013B67
:100F00009BB2044AD15CC2181173002BF7D10020A8
:100F1000704700BFD0B9000810B4D0F818420023C1
:100F200004E0E118002008730133DBB2112BF8D97B
:100F3000702323730C23E37442F25C03E35C42F2FC
:100F40005D01615C8B4217D003F2074104EBC101E4
:100F500091F90400A07391F90900207691F9081025
:100F600061760133DBB242F25C016354042B03D19E
:100F7000002142F25C03E154122363811379122BA6
:100F800000D86381002010BC704700BFD0F8183231
:100F900000205881704700BF30B4D0F8184242F2A8
:100FA0005D05615D01F2074004EBC00002711B02A8
:100FB00083600131C9B26155042901D10022625513
:100FC00030BC704770B50446D0F81852D0F81C32C7
:100FD0001A6842F21403EB584BB12023052242F267
:100FE0001901695CFFF7D8FF4FF0FF3312E00E469E
:100FF000936808469847034650B13A230222314687
:101000002046FFF7C9FF05232B724FF0FF3301E0A5
:1010100000226A81184670BD70B582B005460E4642
:10102000D0F81842D0F81C321868002304E0E21807
:101030000021117301339BB20B2BF8D943680DF1DA
:101040000602694630469847014640B13A230222DB
:1010500031462846FFF7A0FF4FF0FF3118E0082384
:10106000E373009A531E180E2074C3F30740607494
:10107000C3F30723A374013AE27402232375BDF876
:101080000630002262751A0AA275E3750C2363818B
:10109000084602B070BD00BF70B505460E46D0F8D8
:1010A0001842D0F81C321B685B6804F501521E32EE
:1010B00004F5015120313046984740B13A230222CD
:1010C00031462846FFF768FF4FF0FF3119E001462F
:1010D00042F26003E258531E180E2073C3F3074018
:1010E0006073C3F30723A373013AE27342F25E0312
:1010F000E35A0022227462741A0AA274E374082369
:101100006381084670BD00BF10B5D0F81842134483
:1011100042F26002A458A34206D921230522FFF718
:101120003BFF4FF0FF3010BD002010BD2DE9F8430C
:1011300006468846D0F81842D0F81C321B6842F2A6
:101140006802A558B5F5005F28BF4FF40055D3F8E5
:10115000109004F10C0742F26403E15842F25E037E
:10116000E25AB5FBF2F39BB2B1FBF2F239464046CC
:10117000C847002809DA1123042241463046FFF708
:101180000BFF4FF0FF30BDE8F883ABB23A46812148
:10119000304608F0BBFC42F26402A3582B44A35033
:1011A00042F26802A3585B1BA35042F2340162581A
:1011B000551B655023B9032323720020BDE8F88333
:1011C0000020BDE8F88300BFF8B506460F46154677
:1011D000D0F81842D0F81C321A68237A002B56D166
:1011E00042F21803E356002B09DB2023052242F2CA
:1011F0001901615CFFF7D0FE4FF0FF30F8BD936836
:101200000846984740B13A23022239463046FFF754
:10121000C3FE4FF0FF30F8BDAA78EB781B0443EA19
:1012200002632A7943EA02236A791A4342F2640389
:10123000E250E9792B7A43EA012342F268016350D4
:1012400039463046FFF760FF002828DB022323726F
:1012500042F25E03E15A42F26403E25801FB02F2F9
:10126000E25042F26802A35803FB01F3A35042F29A
:101270001402A25893420AD02023052242F21901F7
:10128000615C3046FFF788FE4FF0FF30F8BD4FF449
:101290000053638139463046FFF748FFF8BD4FF0F1
:1012A000FF30F8BD2DE9F84306468846D0F81842CD
:1012B000D0F81C321B6842F26802A558B5F5005FF1
:1012C00028BF4FF40055D3F8149004F10C0742F2F4
:1012D0006403E15842F25E03E25AB5FBF2F39BB2BB
:1012E000B1FBF2F239464046C847002809DA032329
:1012F000042241463046FFF74FFE4FF0FF30BDE875
:10130000F88342F26402A3582B44A35042F26802CD
:10131000A3585B1BA35042F234016258551B655021
:1013200033B900213046FFF7E1FC0020BDE8F88327
:10133000B3F5005F28BF4FF400539BB23A4601213A
:10134000304608F0EBFB0020BDE8F8832DE9F041C2
:1013500006460F46D0F81842D0F81C32D3F8008069
:10136000237A002B73D1154642F21803E356002B63
:1013700009DA2023052242F21901615CFFF70CFE15
:101380004FF0FF3869E0D8F808300846984740B178
:101390003A23022239463046FFF7FEFD4FF0FF3870
:1013A0005BE0D8F80C3038469847804640B1272398
:1013B000022239463046FFF7EFFD4FF0FF384CE090
:1013C000AA78EB781B0443EA02632A7943EA0223F2
:1013D0006A791A4342F26403E250E9792B7A43EACC
:1013E000012342F26801635039463046FFF78CFE14
:1013F000002830DB42F25E03E15A42F26403E25815
:1014000001FB02F2E25042F26802A35803FB01F32F
:10141000A35042F21402A25893420AD0202305227C
:1014200042F21901615C3046FFF7B6FD4FF0FF381C
:1014300013E001212172B3F5005F28BF4FF4005380
:101440009BB204F10C02304608F068FB05E0FFF7A0
:1014500029FF804601E04FF0FF384046BDE8F081AB
:1014600010B5D0F81842537813F0020F06D0242399
:101470000522FFF791FD4FF0FF3010BD42F26803E7
:10148000E35A42F26402A258FFF73EFE002802DB54
:101490000020608110BD4FF0FF3010BD08B51378FB
:1014A0005A2B53D8DFE803F02E5252315252525287
:1014B000525252525252525252523452525252522A
:1014C00052523D3752523A5252525243524652525F
:1014D00049524C525252524F5252525252525252FE
:1014E00052525252525252525252525252525252DC
:1014F00052525252525252525252525252525252CC
:1015000052524000FFF75EFD08BDFFF705FD08BD24
:10151000FFF7B8FC08BDFFF739FD08BDFFF736FD42
:1015200008BDFFF7D5FC08BDFFF7E4FC08BDFFF7D9
:1015300073FD08BDFFF7B0FD08BDFFF745FE08BD10
:10154000FFF704FF08BDFFF78BFF08BD202305222E
:10155000FFF722FD4FF0FF3008BD00BF10B5044675
:1015600002F0C4FE064BA3FB0030800900F08EF8A9
:10157000002221464FF0FF3000F03CF8002010BD63
:10158000D34D621008B5032000F022F80F20FFF7BA
:10159000E5FF07F0AFF8002008BD00BF024A13685E
:1015A00001331360704700BF58030020014B1868D7
:1015B000704700BF5803002038B50546FFF7F6FF17
:1015C0000446FFF7F3FF001BA842FAD338BD00BF63
:1015D000074AD36823F4E0631B041B0C000200F4E9
:1015E000E060184340F0BF6040F40030D0607047C6
:1015F00000ED00E030B4164BDB68C3F30223C3F107
:101600000704042C28BF04241D1D062D01D9DD1E4E
:1016100000E00025012303FA04F4013C2140A94025
:10162000AB40013B1A400A43002806DA00F00F00E5
:101630001201D2B2074B1A5407E01201D2B200F1E4
:10164000604000F5614080F8002330BC704700BF67
:1016500000ED00E014ED00E0420900F01F0001235E
:1016600003FA00F0014B43F82200704700E100E06C
:10167000430900F01F00012202FA00F02033024A61
:1016800042F82300704700BF00E100E00138B0F1EC
:10169000807F0AD2064B5860F021064A82F8231058
:1016A0000020986007221A6070470120704700BF31
:1016B00010E000E000ED00E0042805D1054A1368C1
:1016C00043F0040313607047024A136823F00403D5
:1016D0001360704710E000E008B506F0AFFB08BDEE
:1016E00010B4046863608368102B04D103689A60A7
:1016F0000368D96003E0036899600368DA6010BC8E
:10170000704700BF002800F0EF8010B4034690F847
:10171000252012F0FF0F02D1002280F8242002229F
:1017200083F825201C68226822F47F5121F03001C3
:101730009868DA6810431A6910435A6910439A6925
:101740001043DA6910431A6A02430A4322609A6816
:10175000B2F5804F00F0C2801A6865498A4209D10B
:10176000644A116821F00F01116010685968014343
:101770001160B3E060498A420AD15E4A116821F0E3
:10178000F00111601168586841EA00111160A5E08C
:101790005A498A420AD1574A116821F4706111608E
:1017A0001168586841EA0021116097E054498A4263
:1017B0000AD1504A116821F47041116011685868CB
:1017C00041EA0031116089E04E498A420AD1494A12
:1017D000116821F4702111601168586841EA0041D4
:1017E00011607BE048498A420AD1424A116821F4DB
:1017F000700111601168586841EA005111606DE094
:1018000042498A420AD13B4A116821F07061116055
:101810001168586841EA006111605FE03C498A4202
:1018200009D13C4A116821F00F0111601068596814
:101830000143116052E038498A420AD1354A1168A1
:1018400021F0F00111601168586841EA001111603F
:1018500044E032498A420AD12E4A116821F470616B
:1018600011601168586841EA0021116036E02C4986
:101870008A420AD1274A116821F470411160116827
:10188000586841EA0031116028E026498A420AD1AD
:10189000204A116821F4702111601168586841EAEA
:1018A000004111601AE020498A420AD1194A1168A0
:1018B00021F4700111601168586841EA005111600B
:1018C0000CE01A498A4209D1124A116821F070616C
:1018D00011601168586841EA006111600020986346
:1018E000012283F8252001E00120704710BC7047D9
:1018F00008000240A80002401C00024030000240E4
:1019000044000240580002406C0002408000024047
:1019100008040240A80402401C04024030040240B3
:1019200044040240580402406C0402408004024017
:1019300038B590F82440012C1AD00446012084F8D0
:101940002400022084F825002568286820F0010082
:1019500028602046FFF7C4FE2268136843F00E0398
:1019600013602268136843F001031360002038BD40
:10197000022038BD38B504460268136823F001031D
:101980001360FFF713FE054610E0FFF70FFE401B44
:10199000B0F57A7F0AD9A36B43F02003A363032039
:1019A00084F82500002384F8243038BD23681B68A0
:1019B00013F0010FE9D1012384F82530002084F8C9
:1019C000240038BD10B504460368B64A934258D97E
:1019D00002F560721268B4498B422ED001F5806125
:1019E0008B422CD0A1F57B718B422AD001F580610E
:1019F0008B4228D0A1F57B718B4226D001F5806106
:101A00008B4225D0A1F57B718B4224D001F58061FA
:101A10008B4223D0A1F57B718B4222D001F58061EE
:101A20008B4221D0A1F57B718B4220D001F58061E2
:101A30008B421FD14FF400011EE008211CE0082159
:101A40001AE0802118E0802116E04FF4006113E0D5
:101A50004FF4006110E04FF400410DE04FF40041FD
:101A60000AE04FF4002107E04FF4002104E04FF4B6
:101A7000000101E04FF00061114214BF0122002279
:101A800056E08A4A126888498B422ED001F580615F
:101A90008B422CD0A1F57B718B422AD001F580615D
:101AA0008B4228D0A1F57B718B4226D001F5806155
:101AB0008B4225D0A1F57B718B4224D001F580614A
:101AC0008B4223D0A1F57B718B4222D001F580613E
:101AD0008B4221D0A1F57B718B4220D001F5806132
:101AE0008B421FD14FF400011EE008211CE00821A9
:101AF0001AE0802118E0802116E04FF4006113E025
:101B00004FF4006110E04FF400410DE04FF400414C
:101B10000AE04FF4002107E04FF4002104E04FF405
:101B2000000101E04FF00061114214BF01220022C8
:101B3000002A00F0D2801A6812F0080F00F0CD8061
:101B40001A6822F008021A602368564A934257D94D
:101B500002F56072526854498B422ED001F58061C3
:101B60008B422CD0A1F57B718B422AD001F580618C
:101B70008B4228D0A1F57B718B4226D001F5806184
:101B80008B4225D0A1F57B718B4224D001F5806179
:101B90008B4223D0A1F57B718B4222D001F580616D
:101BA0008B4221D0A1F57B718B4220D001F5806161
:101BB0008B421FD14FF400031EE008231CE00823D2
:101BC0001AE0802318E0802316E04FF4006313E04E
:101BD0004FF4006310E04FF400430DE04FF4004376
:101BE0000AE04FF4002307E04FF4002304E04FF431
:101BF000000301E04FF0006313432D4A53605EE0A1
:101C00002A4A526828498B422ED001F580618B42C6
:101C10002CD0A1F57B718B422AD001F580618B42DB
:101C200028D0A1F57B718B4226D001F580618B42D3
:101C300025D0A1F57B718B4224D001F580618B42C8
:101C400023D0A1F57B718B4222D001F580618B42BC
:101C500021D0A1F57B718B4220D001F580618B42B0
:101C600028D14FF4000327E0082325E0082323E0D0
:101C7000802321E080231FE04FF400631CE04FF439
:101C8000006319E04FF4004316E04FF4004313E003
:101C90004FF4002310E04FF400230DE04FF4000355
:101CA0000AE000BF8000024008000240000002403D
:101CB000000402404FF000631343BA4A5360A36B21
:101CC00043F00103A363042384F82530002384F840
:101CD0002430636B0BB1204698472368B24A934285
:101CE00058D902F560721268B0498B422ED001F5C6
:101CF00080618B422CD0A1F57B718B422AD001F5FB
:101D000080618B4228D0A1F57B718B4226D001F5F2
:101D100080618B4225D0A1F57B718B4224D001F5E7
:101D200080618B4223D0A1F57B718B4222D001F5DB
:101D300080618B4221D0A1F57B718B4220D001F5CF
:101D400080618B421FD14FF480011EE004211CE012
:101D500004211AE0402118E0402116E04FF4806190
:101D600013E04FF4806110E04FF480410DE04FF438
:101D700080410AE04FF4802107E04FF4802104E025
:101D80004FF4800101E04FF08061114214BF012245
:101D9000002256E0834A126884498B422ED001F516
:101DA00080618B422CD0A1F57B718B422AD001F54A
:101DB00080618B4228D0A1F57B718B4226D001F542
:101DC00080618B4225D0A1F57B718B4224D001F537
:101DD00080618B4223D0A1F57B718B4222D001F52B
:101DE00080618B4221D0A1F57B718B4220D001F51F
:101DF00080618B421FD14FF480011EE004211CE062
:101E000004211AE0402118E0402116E04FF48061DF
:101E100013E04FF4806110E04FF480410DE04FF487
:101E200080410AE04FF4802107E04FF4802104E074
:101E30004FF4800101E04FF08061114214BF012294
:101E40000022002A00F0CE801A6812F0040F00F081
:101E5000C9801A6812F0200F03D11A6822F0040218
:101E60001A602368504A934257D902F5607252684B
:101E70004E498B422ED001F580618B422CD0A1F5CA
:101E80007B718B422AD001F580618B4228D0A1F56D
:101E90007B718B4226D001F580618B4225D0A1F564
:101EA0007B718B4224D001F580618B4223D0A1F558
:101EB0007B718B4222D001F580618B4221D0A1F54C
:101EC0007B718B4220D001F580618B421FD14FF492
:101ED00080031EE004231CE004231AE0402318E0E2
:101EE000402316E04FF4806313E04FF4806310E06A
:101EF0004FF480430DE04FF480430AE04FF4802319
:101F000007E04FF4802304E04FF4800301E04FF03A
:101F100080631343264A53605DE0224A5268234996
:101F20008B422ED001F580618B422CD0A1F57B71C4
:101F30008B422AD001F580618B4228D0A1F57B71BC
:101F40008B4226D001F580618B4225D0A1F57B71B3
:101F50008B4224D001F580618B422BD0A1F57B719F
:101F60008B422AD001F580618B4229D0A1F57B718B
:101F70008B4228D001F580618B4227D14FF480033A
:101F800026E0042324E0042322E0402320E0402331
:101F90001EE04FF480631BE04FF4806318E04FF4C1
:101FA000804315E00000024080000240080002402B
:101FB000000402404FF480430AE04FF4802307E01E
:101FC0004FF4802304E04FF4800301E04FF080637E
:101FD0001343BA4A5360112384F82530236B0BB1A5
:101FE000204698472368B64A934258D902F5607252
:101FF0001268B4498B422ED001F580618B422CD0FF
:10200000A1F57B718B422AD001F580618B4228D0EB
:10201000A1F57B718B4226D001F580618B4225D0E2
:10202000A1F57B718B4224D001F580618B4223D0D6
:10203000A1F57B718B4222D001F580618B4221D0CA
:10204000A1F57B718B4220D001F580618B421FD1BD
:102050004FF400111EE002211CE002211AE02021B1
:1020600018E0202116E04FF4007113E04FF40071E6
:1020700010E04FF400510DE04FF400510AE04FF42E
:10208000003107E04FF4003104E04FF4001101E0AB
:102090004FF00071114214BF0122002256E0874A1E
:1020A000126888498B422ED001F580618B422CD07A
:1020B000A1F57B718B422AD001F580618B4228D03B
:1020C000A1F57B718B4226D001F580618B4225D032
:1020D000A1F57B718B4224D001F580618B4223D026
:1020E000A1F57B718B4222D001F580618B4221D01A
:1020F000A1F57B718B4220D001F580618B421FD10D
:102100004FF400111EE002211CE002211AE0202100
:1021100018E0202116E04FF4007113E04FF4007135
:1021200010E04FF400510DE04FF400510AE04FF47D
:10213000003107E04FF4003104E04FF4001101E0FA
:102140004FF00071114214BF01220022002A00F05A
:10215000D4801A6812F0020F00F0CF801A6812F0D3
:10216000200F03D11A6822F002021A602368544A31
:10217000934257D902F56072526852498B422ED071
:1021800001F580618B422CD0A1F57B718B422AD066
:1021900001F580618B4228D0A1F57B718B4226D05E
:1021A00001F580618B4225D0A1F57B718B4224D053
:1021B00001F580618B4223D0A1F57B718B4222D047
:1021C00001F580618B4221D0A1F57B718B4220D03B
:1021D00001F580618B421FD14FF400131EE00223F2
:1021E0001CE002231AE0202318E0202316E04FF41D
:1021F000007313E04FF4007310E04FF400530DE050
:102200004FF400530AE04FF4003307E04FF400337B
:1022100004E04FF4001301E04FF0007313432A4A27
:1022200053605EE0254A526826498B422ED001F564
:1022300080618B422CD0A1F57B718B422AD001F5B5
:1022400080618B4228D0A1F57B718B4226D001F5AD
:1022500080618B4225D0A1F57B718B4224D001F5A2
:1022600080618B4223D0A1F57B718B4222D001F596
:1022700080618B422AD0A1F57B718B4229D001F578
:1022800080618B4228D14FF4001327E0022325E020
:10229000022323E0202321E020231FE04FF40073DA
:1022A0001CE04FF4007319E04FF4005316E04FF4B4
:1022B000005313E04FF4003310E000BF0000024071
:1022C0008000024008000240000402404FF4003346
:1022D00004E04FF4001301E04FF000731343074A8A
:1022E0005360A36BA363012384F82530002384F893
:1022F0002430E36A0BB12046984710BD000002402D
:10230000F0B583B00023D1E001249C40224000F0CE
:10231000CC804D68022D01D0122D10D1DE08083678
:1023200050F826C003F00705AF000F25BD402CEA8A
:10233000050E0D69BD404EEA050540F826500568BA
:102340005F000326BE40F64305EA060E4D6805F021
:102350000305BD404EEA050505604D6805F1FF3EE9
:10236000BEF1010F03D9112D01D0122D11D18568B5
:1023700006EA050ECD68BD404EEA05058560456854
:1023800025EA040E4D68C5F300159D404EEA05058B
:1023900045604D6805F0030EBEF1030F08D1D0F87B
:1023A0002CE02EEA0404C5F3C0059D402C43C46212
:1023B000C46826408C68BC403443C4604C6814F048
:1023C000805F72D03D4C256E45F001052566246E78
:1023D00004F001040194019C9E08B51C384C54F88B
:1023E000257003F00304A4000F25A54027EA050784
:1023F000B0F1904F18D0334DA84217D005F5806545
:10240000A84215D005F58065A84213D005F5806572
:10241000A84211D005F58065A8420FD005F580656A
:10242000A8420DD106250CE000250AE0012508E0B0
:10243000022506E0032504E0042502E0052500E06E
:10244000072505FA04F43C4302361D4D45F82640A5
:102450001D4C2568D44305EA04064F6817F4803FF5
:1024600001D042EA0506184D2E606D6804EA0506A3
:102470004F6817F4003F01D042EA0506124D6E6026
:10248000AD6804EA05064F6817F4801F01D042EAE0
:1024900005060D4DAE60ED682C404E6816F4001F29
:1024A00001D042EA0504084AD46001330A6832FACE
:1024B00003F47FF429AF03B0F0BD00BF0010024069
:1024C0000000014000040048000401400AB181619D
:1024D00070478162704700BF30B405686868064C79
:1024E0000440C1F3090141EA024213430298184330
:1024F0002043686030BC7047009800FC704700BF04
:10250000704700BF704700BF704700BF704700BFF3
:10251000704700BF704700BF90F83430012B53D094
:1025200010B50446012380F8343003689A6912F02C
:10253000100F14D0428D92B22AB91022DA61002312
:1025400080F834303CE01022DA61836B43F00403FE
:102550008363002380F83430FFF7DCFF30E09A69B2
:1025600012F0080F02D00822DA6129E09A6912F00D
:10257000200F14D01A6822F0FE021A600268536815
:1025800043F40043536003682022DA61012380F89A
:102590003530002380F83430FFF7B4FF10E09A693B
:1025A00012F0020F0CD0428D92B24AB1426A511C15
:1025B000416212789A62438D9BB2013B9BB2438584
:1025C000002084F8340010BD0220704790F83430A9
:1025D000012B00F0998010B582B00446012380F8E9
:1025E000343003689A6912F0020F0DD0426A511C10
:1025F000416212789A62038D013B0385438D9BB241
:10260000013B9BB243857BE09A6912F0800F2BD08F
:10261000028DF2B9428D92B2DAB15968C1F3090163
:10262000438D9BB2FF2B09D9002300934FF0807399
:10263000FF22FFF751FFFF23238561E0428D002336
:1026400000934FF00073D2B2FFF746FF638D2385EE
:1026500056E0002384F83430A36B43F04003A363B7
:102660002046FFF757FF4BE09A6912F0400F11D058
:10267000428D92B222B95A6842F480425A603FE0D9
:10268000002380F83430836B43F040038363FFF70B
:1026900041FF35E09A6912F0200F22D01A6822F02B
:1026A000F2021A6003682022DA610268536823F09C
:1026B000FF7323F48B3323F4FF7323F00103536080
:1026C000012380F83530002380F8343090F835301D
:1026D000DBB2522B02D1FFF719FF11E0FFF70EFF1B
:1026E0000EE09A6912F0100F0AD01022DA6100236E
:1026F00080F83430836B43F004038363FFF70AFFF1
:10270000002084F8340001E00220704702B010BDC0
:1027100090F83430012B4AD010B50446012380F8DC
:10272000343003689A6912F0100F0BD01022DA616E
:10273000002380F83430836B43F004038363FFF796
:10274000E9FE30E09A6912F0080F02D00822DA613F
:1027500029E09A6912F0040F0DD0426A511C4162BF
:102760005B6A1370038D013B0385438D9BB2013B74
:102770009BB2438517E09A6912F0200F13D01A68B4
:1027800022F0FC021A600268536843F4004353606D
:1027900003682022DA61012380F83530002380F8B5
:1027A0003430FFF7B1FE002084F8340010BD022061
:1027B000704700BF90F83430012B00F0998010B5BD
:1027C00082B00446012380F8343003689A6912F01D
:1027D000040F0DD0426A511C41625B6A1370038D75
:1027E000013B0385438D9BB2013B9BB243857BE05C
:1027F0009A6912F0800F2BD0028DF2B9428D92B2FD
:10280000DAB15968C1F30901438D9BB2FF2B09D995
:10281000002300934FF08073FF22FFF75DFEFF233C
:10282000238561E0428D002300934FF00073D2B204
:10283000FFF752FE638D238556E0002384F8343081
:10284000A36B43F04003A3632046FFF763FE4BE016
:102850009A6912F0400F11D0428D92B222B95A6893
:1028600042F480425A603FE0002380F83430836BAA
:1028700043F040038363FFF74DFE35E09A6912F0A1
:10288000200F22D01A6822F0F4021A600368202276
:10289000DA610268536823F0FF7323F48B3323F467
:1028A000FF7323F001035360012380F835300023C8
:1028B00080F8343090F83530DBB2622B02D1FFF76C
:1028C00027FE11E0FFF71CFE0EE09A6912F0100FD0
:1028D0000AD01022DA61002380F83430836B43F091
:1028E00004038363FFF716FE002084F8340001E040
:1028F0000220704702B010BD10B5044603689A6903
:1029000012F0020F13D19A6912F0800F0FD19A6959
:1029100012F0400F0BD19A6912F0200F07D19A697B
:1029200012F0100F03D19A6912F0080F0CD01B6837
:1029300003F07A037A2B07D194F83530DBB2322BCF
:1029400002D12046FFF7E8FD23689A6912F0020FD2
:102950000FD19A6912F0800F0BD19A6912F0400FD3
:1029600007D19A6912F0200F03D19A6912F0100F63
:1029700011D01B6803F07203722B0CD194F8353020
:10298000DBB2122B04D094F83530DBB2522B02D1DB
:102990002046FFF71BFE23689A6912F0040F13D13B
:1029A0009A6912F0800F0FD19A6912F0400F0BD183
:1029B0009A6912F0200F07D19A6912F0100F03D113
:1029C0009A6912F0080F0CD01B6803F07C037C2B73
:1029D00007D194F83530DBB2422B02D12046FFF705
:1029E00097FE23689A6912F0040F0FD19A6912F0CA
:1029F000800F0BD19A6912F0400F07D19A6912F03B
:102A0000200F03D19A6912F0100F11D01B6803F048
:102A10007403742B0CD194F83530DBB2222B04D024
:102A200094F83530DBB2622B02D12046FFF7C2FEAC
:102A300010BD00BF2DE9F04383B007460D46D0F826
:102A40000080CA00521A93000344DE6C1A6DB61A55
:102A50001B6C9E4200D91E4616F1030901D509F1EF
:102A600003094FEAA90921E09E1AC5EBC5029300AC
:102A70003B441B6C9E4200D91E4616F1030901D54A
:102A800009F103094FEAA909EB005B1B9C003C44D8
:102A9000616C3B7C0093B3B2EAB2404604F0FAF8B2
:102AA000636C33446364236D33442365414608EB10
:102AB000451303F510639B699BB2994509D2EA005F
:102AC000521B93003B441A6DDB6C9A4201D2002BDF
:102AD000CAD1002E08DC012303FA05F5D1F83438F9
:102AE00023EA0505C1F83458002003B0BDE8F0839F
:102AF000002800F08180F0B58BB0044690F8813357
:102B000013F0FF0F04D1002380F8803306F0AEFEEF
:102B1000032384F88133206803F06EFD254655F8C1
:102B2000107B6E460FCD0FC60FCD0FC695E8030084
:102B300086E80300231D0ECB384603F03FFD00213D
:102B4000206803F05FFD002210E0D100891A8B009D
:102B50002344012183F8391083F83820DA870021D3
:102B600083F83B1019645964D964013263689A424E
:102B7000EBD3002218E0D100891A8B0023440021F6
:102B800083F8DD1183F8DC21DA8783F8DF11C3F8DD
:102B9000E411C3F8E811C3F8F011236802F1400012
:102BA00003EB80035960013263689A42E3D3254600
:102BB00055F8107B6E460FCD0FC60FCD0FC695E8AA
:102BC000030086E80300231D0ECB384603F030FDDA
:102BD000012384F88133636A012B02D1204600F07F
:102BE0000FFCA36A012B02D1204600F01DFC2068D7
:102BF00004F0F8F8002001E0012070470BB0F0BDB0
:102C000090F88033012B0ED010B50446012380F8D4
:102C10008033006804F0DAF8206803F0E7FC002055
:102C200084F8800310BD0220704700BF2DE9F047F3
:102C300004460668304604F011F9002840F050823E
:102C4000206804F0DBF8002800F04A82206804F0D5
:102C5000D5F810F0020F04D02268536903F0020384
:102C60005361206804F0CAF810F4002F6BD020687C
:102C700004F0C8F80746002562E017F0010F5DD0A8
:102C80005FFA85FA5146206804F0CCF8804610F0CF
:102C9000010F40D006EB45130122C3F8082B03F5C2
:102CA000306306F53069D9F8082012F4004F2AD1B4
:102CB0002269012A12D1E900491B8A002244D2F874
:102CC000E4111B69C3F31203C91AC2F8F411D2F854
:102CD000E811D2F8E4310B44C2F8E83151462046FD
:102CE00006F010FE2369012B0DD165B9C5EBC502B5
:102CF00093002344D3F8F0312BB904F5617201211C
:102D0000206804F0CBF8D9F8083043F4004343F0CE
:102D10002003C9F8083018F0080F07D0204606F045
:102D2000E9FD06EB45130822C3F8082B18F0100F35
:102D300004D006EB45131022C3F8082B01357F0899
:102D4000002F9AD100E00025206804F057F810F415
:102D5000802F69D0206804F05DF80746002561E007
:102D600017F0010F5CD05FFA85F94946206804F03E
:102D700063F8804610F0010F2BD0012202FA05F013
:102D8000D6F8343823EA0003C6F8343806EB451386
:102D9000C3F808292369934207D1EA00521B930024
:102DA0002344596C1A6C0A445A644946204606F07A
:102DB000B5FD2369012B0CD15DB9C5EBC5029300AC
:102DC0002344DB6C2BB904F561720121206804F007
:102DD00065F818F0080F04D006EB45130822C3F875
:102DE000082918F0100F04D006EB45131022C3F881
:102DF000082918F0400F04D006EB45134022C3F811
:102E0000082918F0020F04D006EB45130222C3F87C
:102E1000082918F0800F03D029462046FFF70AFE44
:102E200001357F08002F9BD1206803F0E7FF0028C1
:102E300018DAD6F8043823F00103C6F8043894F8F9
:102E4000B433012B06D1002184F8B413204606F0D8
:102E500073FE02E0204606F097FD2268536903F0F6
:102E600000435361206803F0C9FF10F4006F0CD0D9
:102E7000D6F8083813F0010F02D0204606F06CFD9A
:102E80002268536903F400635361206803F0B6FFBE
:102E900010F0006F17D02268536903F0006353618C
:102EA00094F8B43363B9012184F8B41323685B6DDB
:102EB000C3F38303C4F8B833204606F03DFE02E0B6
:102EC000204606F049FD206803F098FF10F4805F6B
:102ED0004FD0374606F50068D8F8043023F00103D8
:102EE000C8F804300021206803F042FC002207E00B
:102EF00007EB4213FF21C3F80819C3F8081B01327E
:102F000063689A42F4D34FF0FF33C8F81830D8F80A
:102F10001C3043F00113C8F81C30236B63B1D8F8A0
:102F2000843043F00B03C8F88430D8F8443043F0C1
:102F30000B03C8F844300BE0D8F8143043F00B030F
:102F4000C8F81430D8F8103043F00B03C8F810302C
:102F5000D6F8003823F4FE63C6F8003804F5617231
:102F6000217C206803F09AFF2268536903F48053A0
:102F70005361206803F042FF10F4005F18D020680E
:102F800003F070FF2268D36823F47053D3600323E7
:102F9000E360402363612268D36843F4A053D360A5
:102FA000204606F0CDFC2268536903F400535361B8
:102FB000206803F023FF10F0100F45D022689369BA
:102FC00023F010039361376A07F00F08C7F34343F8
:102FD000022B1FD147F6F0731F4230D03F094FEA52
:102FE000C80AC8EB0A034FEA8309A144C7F30A02DF
:102FF000D9F8E811304603F063FEC7F30A07D9F8A1
:10300000E8313B44C9F8E831D9F8F4311F44C9F834
:10301000F47114E0062B12D1082204F561713046D8
:1030200003F04EFEC7F30A174FEAC803C8EB0301CB
:103030008A002244D2F8F4313B44C2F8F4312268C9
:10304000936943F010039361206803F0D7FE10F0FA
:10305000080F07D0204606F06DFC2268536903F084
:1030600008035361206803F0C9FE10F4801F08D0E4
:10307000E9B2204606F0A8FC2268536903F48013E5
:103080005361206803F0BAFE10F4001F08D0E9B2C3
:10309000204606F093FC2268536903F40013536141
:1030A000206803F0ABFE10F0804F07D0204606F0FA
:1030B00091FC2268536903F080435361206803F058
:1030C0009DFE10F0040F0BD023685D6815F0040F0F
:1030D00002D0204606F084FC226853682B435360DC
:1030E000BDE8F08790F88033012B0BD010B5044673
:1030F000012380F88033006803F058FE002084F834
:10310000800310BD0220704770B54DB2002D07DA64
:1031100001F07F06C6EBC606B4003834044408E06C
:1031200001F07F06C6EBC606B40004F5EC74044457
:10313000043401F07F012170ED0F6570A260E3702F
:1031400005B1E180022B01D10023237190F8803377
:10315000012B0BD00546012380F8803321460068FF
:1031600003F034FB002085F8800370BD022070BDA1
:1031700010B54AB2002A07DA01F07F04C4EBC40498
:10318000A3003833034408E001F07F04C4EBC40417
:10319000A30003F5EC730344043301F07F011970BD
:1031A000D20F5A7090F88023012A0BD004460122D6
:1031B00080F880231946006803F054FB002084F84F
:1031C000800310BD022010BD70B501F07F06F40031
:1031D000A11B8D0005F5EC750544291DA51BAC0050
:1031E0000444C4F8E821C4F8F0310023C4F8F431F1
:1031F00084F8DD3184F8DC610369012B05D1C6EB6D
:10320000C605AC000444C4F8EC2190F88023012AE0
:1032100011D00446012280F8802326B9DAB2006872
:1032200003F08AFC03E0DAB2006803F05BFB0020E5
:1032300084F8800370BD022070BD00BF01F07F01E3
:10324000C1EBC1018B001844B0F8F401704700BF16
:1032500070B501F07F06F500A91B8C003834011908
:10326000AD1BAC0004446264E364002323650123C6
:1032700084F8393084F838600369012B04D1C6EB37
:10328000C605AC000444A26490F88023012A11D042
:103290000446012280F8802326B9DAB2006803F0E0
:1032A0004BFC03E0DAB2006803F01CFB002084F85A
:1032B000800370BD022070BD38B54AB2002A07DA1B
:1032C00001F07F04C4EBC404A3003833034406E0D8
:1032D000C1EBC104A30003F5EC73034404330124E0
:1032E0009C7001F07F041C70D20F5A7090F88023FC
:1032F000012A12D00546012280F880231946006871
:1033000003F0EEFC2CB905F56172297C286803F006
:10331000C5FD002085F8800338BD022038BD00BF00
:1033200010B54AB2002A07DA01F07F04C4EBC404E6
:10333000A3003833034406E0C1EBC104A30003F546
:10334000EC730344043300249C7001F07F01197076
:10335000D20F5A7090F88023012A0BD00446012224
:1033600080F880231946006803F0ECFC002084F804
:10337000800310BD022010BD90F88033012B14D0C3
:1033800010B50446012380F8803311F0800F05D07A
:1033900001F07F01006803F0EBF902E0006803F040
:1033A000FBF9002084F8800310BD0220704700BFA5
:1033B00030B40468636A19B943EA0240A06218E0B5
:1033C0000D46A06A03EB1040002308E003F1400122
:1033D00004EB8101496800EB11400133DBB2691E47
:1033E0008B42F3DB40EA024005F13F0104EB81012F
:1033F0004860002030BC7047036859620020704765
:10340000034602680121C0F8BC13002083F8B4030E
:10341000936943F000639361536D43F0805343F02D
:1034200003035365704700BF02680123C0F8C0332F
:10343000936B43F40033936300207047024B18688A
:1034400000F4C060704700BF00700040B0F5007F1E
:103450002AD1204B1B6803F4C063B3F5007F33D03F
:103460001C4A136823F4C06343F4007313601A4BBF
:103470001B6802F1467202F55B3202F28322A2FB64
:1034800003239A0C322303FB02F300E0013B23B138
:10349000104A526912F4806FF8D10E4B5B6913F435
:1034A000806F13D0032070470A4B1B6803F4C0637E
:1034B000B3F5806F0CD0074A136823F4C06343F45C
:1034C0008063136000207047002070470020704721
:1034D00000207047007000400C000020024A536832
:1034E00043F48063536070470070004030B583B090
:1034F0000546214B9B6D13F0805F02D0FFF79EFFC6
:103500000FE01D4CA36D43F08053A365A36D03F042
:1035100080530193019BFFF791FFA36D23F080532C
:10352000A365B0F5007F05D1802D0AD9A02D0AD959
:1035300002220FE0802D08D809D0702D09D000227A
:1035400008E0002206E0012204E0032202E0022259
:1035500000E00122094B1B6823F0070313430749CE
:103560000B600B6803F007039A4201D0012000E0D2
:10357000002003B030BD00BF001002400020024018
:1035800070B582B00446036813F0100F00F0B780E6
:10359000AB4B9B6813F00C0F5BD1022393FAA3F3A0
:1035A000A74B1A68022393FAA3F3B3FA83F303F049
:1035B0001F0322FA03F313F0010F03D08369002BDA
:1035C00000F00C84206A9E4B1B6813F0080F04D097
:1035D0009B4B1B6803F0F00305E0994BD3F8943044
:1035E0001B0903F0F003834217D2FFF77FFF002887
:1035F00040F0F683924B1A6842F008021A601A688B
:1036000022F0F001226A0A431A605A6822F47F42CB
:10361000E16942EA01225A6017E0894B1A6842F0D8
:1036200008021A601A6822F0F001226A0A431A603E
:103630005A6822F47F42E16942EA01225A60206A14
:10364000FFF754FF002840F0CD830F20FDF786FFE1
:1036500055E08369002B32D0794A136843F00103A7
:103660001360FDF7A3FF054605E0FDF79FFF401B34
:10367000642800F2B983022393FAA3F3704B1A680B
:10368000022393FAA3F3B3FA83F303F01F0322FA9E
:1036900003F313F0010FE8D0694B1A6842F00802F7
:1036A0001A601A6822F0F001226A0A431A605A6806
:1036B00022F47F42E16942EA01225A601FE0604A37
:1036C000136823F001031360FDF770FF054605E062
:1036D000FDF76CFF401B642800F28883022393FAF5
:1036E000A3F3574B1A68022393FAA3F3B3FA83F3B5
:1036F00003F01F0322FA03F313F0010FE8D123684C
:1037000013F0010F00F0B7804D4B9B6803F00C03E2
:10371000082B0BD04A4B9B6803F00C030C2B1ED1DB
:10372000474BDB6803F00303032B18D14FF400333E
:1037300093FAA3F3424B1A684FF4003393FAA3F3BE
:10374000B3FA83F303F01F0322FA03F313F0010F1C
:1037500000F091806368002B40F08D8048E3384B87
:103760001A6822F480321A601A6822F480221A60E1
:10377000FDF71CFF054605E0FDF718FF401B642818
:1037800000F238834FF4003393FAA3F32C4B1A68FA
:103790004FF4003393FAA3F3B3FA83F303F01F0358
:1037A00022FA03F313F0010FE6D16368B3F5803F0B
:1037B00005D1234A136843F4803313601CE0B3F54A
:1037C000A02F10D103F18043A3F53C331A6822F4F3
:1037D00080321A601A6842F480221A601A6842F431
:1037E00080321A6008E0164B1A6822F480321A60A0
:1037F0001A6822F480221A606368EBB1FDF7D6FEE6
:10380000054605E0FDF7D2FE401B642800F2F48275
:103810004FF4003393FAA3F3094B1A684FF40033C3
:1038200093FAA3F3B3FA83F303F01F0322FA03F32B
:1038300013F0010FE6D01EE0FDF7B8FE054607E0E5
:1038400000100240FDF7B2FE401B642800F2D68251
:103850004FF4003393FAA3F3C34B1A684FF40033C9
:1038600093FAA3F3B3FA83F303F01F0322FA03F3EB
:1038700013F0010FE6D1236813F0020F00F08D80E2
:10388000B94B9B6803F00C03042B0BD0B64B9B6821
:1038900003F00C030C2B2BD1B34BDB6803F00303B9
:1038A000022B25D14FF4806393FAA3F3AE4B1A6831
:1038B0004FF4806393FAA3F3B3FA83F303F01F0387
:1038C00022FA03F313F0010F03D0E368002B00F09A
:1038D0009782A548436823F0F85123694FF0F852C6
:1038E00092FAA2F2B2FA82F293400B43436054E0A0
:1038F000E36883B39C4A136843F480731360FDF755
:1039000055FE054605E0FDF751FE401B642800F218
:1039100079824FF4806393FAA3F3934B1A684FF4C0
:10392000806393FAA3F3B3FA83F303F01F0322FA3D
:1039300003F313F0010FE6D08B48436823F0F851EE
:1039400023694FF0F85292FAA2F2B2FA82F293404F
:103950000B43436021E0844A136823F480731360AF
:10396000FDF724FE054605E0FDF720FE401B642818
:1039700000F24A824FF4806393FAA3F37A4B1A68F9
:103980004FF4806393FAA3F3B3FA83F303F01F03B6
:1039900022FA03F313F0010FE6D1236813F0080FA6
:1039A00050D063693BB3704AD2F8943043F00103BE
:1039B000C2F89430FDF7FAFD054605E0FDF7F6FD87
:1039C000401B642800F22282022393FAA3F293FAA6
:1039D000A3F293FAA3F3644BD3F89420022393FA4F
:1039E000A3F3B3FA83F303F01F0322FA03F313F0F4
:1039F000010FE3D026E05C4AD2F8943023F00103B3
:103A0000C2F89430FDF7D2FD054605E0FDF7CEFD86
:103A1000401B642800F2FC81022393FAA3F293FA7C
:103A2000A3F293FAA3F3504BD3F89420022393FA12
:103A3000A3F3B3FA83F303F01F0322FA03F313F0A3
:103A4000010FE3D1236813F0040F00F02D81464BE2
:103A50009B6D13F0805F0BD1434B9A6D42F0805207
:103A60009A659B6D03F080530193019B012600E052
:103A700000263E4B1B6813F4807F13D13B4A13682A
:103A800043F480731360FDF791FD054605E0FDF7F3
:103A90008DFD401B642800F2BD81344B1B6813F47C
:103AA000807FF4D0304BD3F8902022F00102C3F88D
:103AB0009020D3F8902022F00402C3F89020FDF764
:103AC00075FD054607E0FDF771FD401B41F28833A7
:103AD000984200F2A181022393FAA3F293FAA3F38E
:103AE000B3FA83F35B0943F00203022B03D11E4BAD
:103AF000D3F890200FE0022393FAA3F3B3FA83F3F1
:103B00005B0943F00203032B03D1174BD3F8942036
:103B100001E0154BDA69022393FAA3F3B3FA83F3B6
:103B200003F01F0322FA03F313F0010FCBD1A368B4
:103B3000012B07D10C4AD2F8903043F00103C2F8B0
:103B4000903038E0A3B903F1804303F50433D3F890
:103B5000902022F00102C3F89020D3F8902022F0A8
:103B60000402C3F8902026E00010024000700040DC
:103B7000052B13D1B14BD3F8902022F00102C3F8EA
:103B80009020D3F8902042F00402C3F89020D3F89C
:103B9000902042F00102C3F890200CE0A74BD3F82C
:103BA000902022F00102C3F89020D3F8902022F058
:103BB0000402C3F89020A368C3B3FDF7F7FC0546E1
:103BC00007E0FDF7F3FC401B41F28833984200F216
:103BD0002581022393FAA3F293FAA3F3B3FA83F3B2
:103BE0005B0943F00203022B03D1944BD3F89020DE
:103BF0000FE0022393FAA3F3B3FA83F35B0943F0D4
:103C00000203032B03D18D4BD3F8942001E08B4B9F
:103C1000DA69022393FAA3F3B3FA83F303F01F03E1
:103C200022FA03F313F0010FCBD037E0FDF7BEFC0F
:103C3000054607E0FDF7BAFC401B41F28833984285
:103C400000F2EE80022393FAA3F293FAA3F3B3FAFD
:103C500083F35B0943F00203022B03D1774BD3F8C4
:103C600090200FE0022393FAA3F3B3FA83F35B09E6
:103C700043F00203032B03D1704BD3F8942001E0EF
:103C80006E4BDA69022393FAA3F3B3FA83F303F0DA
:103C90001F0322FA03F313F0010FCBD126B1674AB9
:103CA000936D23F080539365636A002B00F0BA8014
:103CB000624A926802F00C020C2A00F0B580022BD6
:103CC0005FD15E4A136823F080731360FDF76EFCCA
:103CD000054605E0FDF76AFC401B642800F2A6805B
:103CE0004FF0007393FAA3F3544B1A684FF000732C
:103CF00093FAA3F3B3FA83F303F01F0322FA03F357
:103D000013F0010FE6D1E36A5A1E236B1B0243EA4C
:103D10000213626B120943EA4242A36A1343A26B85
:103D20005208013A43EA4253E26B5208013A43EA2D
:103D30004263424AD360136843F080731360D368D0
:103D400043F08073D360FDF731FC044604E0FDF7D7
:103D50002DFC001B64286BD84FF0007393FAA3F37B
:103D6000364B1A684FF0007393FAA3F3B3FA83F358
:103D700003F01F0322FA03F313F0010FE7D0002032
:103D800059E02E4B1A6822F080721A60DA6822F02D
:103D90000302DA60DA6822F0887222F48032DA6094
:103DA000FDF704FC044604E0FDF700FC001B64285A
:103DB00040D84FF0007393FAA3F3204B1A684FF0EA
:103DC000007393FAA3F3B3FA83F303F01F0322FA09
:103DD00003F313F0010FE7D100202CE001202AE0CB
:103DE000012028E0012026E0032024E0032022E037
:103DF000012020E003201EE003201CE003201AE045
:103E0000012018E0032016E0032014E0032012E054
:103E1000032010E003200EE003200CE003200AE062
:103E2000032008E0002006E0012004E0032002E077
:103E3000032000E0032002B070BD00BF001002406C
:103E400070B505460C46B44B1B6803F007038B4264
:103E500080F0C380042905D8AF4B1B6823F007030B
:103E60000B4301E0AC4B1B68AB4A1360136803F0D3
:103E700007039C4240F08E812B6813F0020F06D09E
:103E8000A6498B6823F0F002AB6813438B602B6864
:103E900013F0010F00F062816B68022B13D14FF415
:103EA000003292FAA2F29D4A11684FF4003292FA5F
:103EB000A2F2B2FA82F202F01F0221FA02F212F02A
:103EC000010F3DD168E1032B13D14FF0007292FA3C
:103ED000A2F2924A11684FF0007292FAA2F2B2FA7C
:103EE00082F202F01F0221FA02F212F0010F27D132
:103EF00054E18BB9022292FAA2F2884A1168022296
:103F000092FAA2F2B2FA82F202F01F0221FA02F24F
:103F100012F0010F14D143E14FF4806292FAA2F241
:103F20007E4A11684FF4806292FAA2F2B2FA82F2EB
:103F300002F01F0221FA02F212F0010F00F03281AA
:103F400076498A6822F0030213438B60FDF72EFB4B
:103F500004466B68022B0FD107E0FDF727FB001B1F
:103F600041F28833984200F21F816C4B9B6803F04A
:103F70000C03082BF1D1F1E0032B0FD107E0FDF783
:103F800015FB001B41F28833984200F20F81634B0E
:103F90009B6803F00C030C2BF1D1DFE043B115E07B
:103FA000FDF704FB001B41F28833984200F20081C8
:103FB0005A4B9B6813F00C0FF2D1CFE0FDF7F6FAE5
:103FC000001B41F28833984200F2F480534B9B6807
:103FD00003F00C03042BF1D1C0E0036813F0020FCF
:103FE00006D04E498B6823F0F002836813438B6040
:103FF0002B6813F0010F00F0A0806B68022B13D127
:104000004FF4003292FAA2F2444A11684FF400329F
:1040100092FAA2F2B2FA82F202F01F0221FA02F23E
:1040200012F0010F3DD1C7E08BB9022292FAA2F241
:104030003A4A1168022292FAA2F2B2FA82F202F02D
:104040001F0221FA02F212F0010F2AD1B6E0032B6F
:1040500013D14FF0007292FAA2F2304A11684FF079
:10406000007292FAA2F2B2FA82F202F01F0221FA70
:1040700002F212F0010F14D1A2E04FF4806292FA22
:10408000A2F2264A11684FF4806292FAA2F2B2FAC2
:1040900082F202F01F0221FA02F212F0010F00F088
:1040A00091801E498A6822F0030213438B60FDF75A
:1040B0007DFA06466B68022B0ED106E0FDF776FA14
:1040C000801B41F2883398427ED8144B9B6803F0E2
:1040D0000C03082BF2D130E0032B0ED106E0FDF7E4
:1040E00065FA801B41F2883398426FD80B4B9B686E
:1040F00003F00C030C2BF2D11FE03BB117E0FDF7EE
:1041000055FA801B41F28733984261D8034B9B6874
:1041100013F00C0FF3D110E0002002400010024019
:10412000FDF744FA801B41F28833984252D82B4B5A
:104130009B6803F00C03042BF2D1042C05D8284B08
:104140001B6823F00703234301E0254B1B68244A27
:104150001360136803F007039C423DD12B6813F0F2
:10416000040F06D01D498B6823F4E062EB6813430B
:104170008B602B6813F0080F07D0184A936823F45C
:104180006053296943EAC10393600F20FDF7E6F904
:10419000002070BD012070BD012070BD012070BDE8
:1041A000012070BD012070BD032070BD032070BDD3
:1041B000032070BD032070BD012070BD012070BDC3
:1041C000012070BD012070BD032070BD032070BDB3
:1041D000032070BD032070BD012070BD001002409F
:1041E000002002403D4B9B6803F00C03042B2FD0B2
:1041F0003A4B9B6803F00C03082B2CD0374B9B6881
:1042000013F00C0F0BD0354B9B6803F00C030C2BF9
:1042100024D1324BDB6803F00303012B21D12F4B58
:104220001B6813F0080F05D12C4BD3F89430C3F35F
:10423000032303E0294B1B68C3F30313284A52F8F6
:104240002310264B9B6813F00C0F0DD000200CE0C0
:104250002448002109E02448002106E0002001460E
:1042600003E00020014600E008461C4A926802F084
:104270000C020C2A30D1194BDA6802F00302DB6819
:10428000C3F302130133022A02D0032A0AD013E037
:104290001448B0FBF3F0114BDB68C3F3062303FBB8
:1042A00000F311E01048B0FBF3F30C4AD268C2F3FC
:1042B000062202FB03F307E0B1FBF3F3074AD268DF
:1042C000C2F3062202FB03F3044AD068C0F3416044
:1042D00001304000B3FBF0F0704700BF0010024017
:1042E00040BB00080024F400001BB70008B5FFF72E
:1042F00079FF084B9B6803F0F002F02393FAA3F3D5
:10430000B3FA83F322FA03F3034AD35CD840034B96
:10431000186008BD0010024030BB00080C000020EF
:1043200008B5FFF7E3FF084B9B6803F4E0624FF426
:10433000E06393FAA3F3B3FA83F322FA03F3034A95
:10434000D35CD84008BD00BF00100240E0B90008AF
:1043500008B5FFF7CBFF084B9B6803F460524FF49E
:10436000605393FAA3F3B3FA83F322FA03F3034AF5
:10437000D35CD84008BD00BF00100240E0B900087F
:1043800070B50446304A136823F080631360FDF76C
:104390000DF9054605E0FDF709F9401BB0F57A7FF8
:1043A00014D84FF0006393FAA3F3274B1A684FF029
:1043B000006393FAA3F3B3FA83F303F01F0322FA23
:1043C00003F313F0010FE6D1002600E00326002ED0
:1043D00038D11D4B1A6922F4FE42216842EA0122BB
:1043E0001A611A6922F400316268120941EA4242F4
:1043F0001A611A6842F080621A60FDF7D7F8054624
:1044000005E0FDF7D3F8401BB0F57A7F13D84FF0E5
:10441000006393FAA3F30C4B1A684FF0006393FA0E
:10442000A3F3B3FA83F303F01F0322FA03F313F0A9
:10443000010FE6D000E0032626B9034A116923697B
:104440000B431361304670BD0010024070B5044646
:10445000304A136823F080531360FDF7A7F8054630
:1044600005E0FDF7A3F8401BB0F57A7F14D84FF0B4
:10447000005393FAA3F3274B1A684FF0005393FAB3
:10448000A3F3B3FA83F303F01F0322FA03F313F049
:10449000010FE6D1002600E00326002E38D11D4B87
:1044A0005A6922F4FE42216842EA01225A615A699D
:1044B00022F400316268120941EA42425A611A68E4
:1044C00042F080521A60FDF771F8054605E0FDF7ED
:1044D0006DF8401BB0F57A7F13D84FF0005393FA74
:1044E000A3F30C4B1A684FF0005393FAA3F3B3FAFB
:1044F00083F303F01F0322FA03F313F0010FE6D056
:1045000000E0032626B9034A5169E3680B4353616F
:10451000304670BD0010024070B50446314A136841
:1045200023F080631360FDF741F8054605E0FDF7D1
:104530003DF8401BB0F57A7F14D84FF0006393FA32
:10454000A3F3284B1A684FF0006393FAA3F3B3FA6E
:1045500083F303F01F0322FA03F313F0010FE6D1F4
:10456000002600E00326002E39D11E4B1A6922F4E2
:10457000FE42216842EA01221A611A6922F4C0014E
:10458000A2685208013A41EA42521A611A6842F09E
:1045900080621A60FDF70AF8054605E0FDF706F8A7
:1045A000401BB0F57A7F13D84FF0006393FAA3F362
:1045B0000C4B1A684FF0006393FAA3F3B3FA83F33A
:1045C00003F01F0322FA03F313F0010FE6D000E01B
:1045D000032626B9034A116923690B431361304648
:1045E00070BD00BF0010024070B50446314A136828
:1045F00023F080631360FCF7D9FF054605E0FCF764
:10460000D5FF401BB0F57A7F14D84FF0006393FAC2
:10461000A3F3284B1A684FF0006393FAA3F3B3FA9D
:1046200083F303F01F0322FA03F313F0010FE6D123
:10463000002600E00326002E39D11E4B1A6922F411
:10464000FE42216842EA01221A611A6922F0C06121
:10465000E2685208013A41EA42621A611A6842F07D
:1046600080621A60FCF7A2FF054605E0FCF79EFF9A
:10467000401BB0F57A7F13D84FF0006393FAA3F391
:104680000C4B1A684FF0006393FAA3F3B3FA83F369
:1046900003F01F0322FA03F313F0010FE6D000E04A
:1046A000032626B9034A116923690B431361304677
:1046B00070BD00BF0010024070B50446314A136857
:1046C00023F080531360FCF771FF054605E0FCF70B
:1046D0006DFF401BB0F57A7F14D84FF0005393FA6A
:1046E000A3F3284B1A684FF0005393FAA3F3B3FADD
:1046F00083F303F01F0322FA03F313F0010FE6D153
:10470000002600E00326002E39D11E4B5A6922F400
:10471000FE42216842EA01225A615A6922F0C061D0
:10472000A2685208013A41EA42625A611A6842F0AC
:1047300080521A60FCF73AFF054605E0FCF736FFA9
:10474000401BB0F57A7F13D84FF0005393FAA3F3D0
:104750000C4B1A684FF0005393FAA3F3B3FA83F3A8
:1047600003F01F0322FA03F313F0010FE6D000E079
:10477000032626B9034A5169E3680B435361304667
:1047800070BD00BF001002402DE9F04182B0044628
:10479000036813F4006F2CD0436DB3F5800F16D06F
:1047A00001D87BB118E0B3F5000F04D0B3F5400F8A
:1047B00012D1002511E0744AD36843F48033D360EA
:1047C00000250AE00430FFF7DBFD054605E0183060
:1047D000FFF73CFE054600E001256DB96A49D1F8B6
:1047E000883023F44002636D1343C1F888302E46AD
:1047F00003E00026354600E02E46236813F4805F70
:104800002BD0A36DB3F1807F14D001D86BB117E02A
:10481000B3F1007F03D0B3F1407F12D010E05A4AC9
:10482000D36843F48033D3600BE0201DFFF7A8FD6D
:10483000054606E004F11800FFF708FE054600E013
:1048400001254DB95049D1F8883023F04072A36D4D
:104850001343C1F8883000E02E46236813F4003F6C
:1048600000F09D80484B9B6D13F0805F0BD1464B51
:104870009A6D42F080529A659B6D03F080530193CC
:10488000019B012700E00027404A136843F480732E
:104890001360FCF78BFE804605E0FCF787FEC8EB53
:1048A0000000642805D8394B1B6813F4807FF4D0CE
:1048B00000E00325002D64D1334BD3F8903003F48E
:1048C0004073626F934213D02F4BD3F8902022F4A1
:1048D0004072D3F8901041F48031C3F89010D3F8AF
:1048E000901021F48031C3F89010C3F8902000E0BC
:1048F000002212F0020F39D0FCF758FE804607E084
:10490000FCF754FEC8EB000041F2883398422CD8E3
:10491000022393FAA3F293FAA3F3B3FA83F35B09A6
:1049200043F00203022B03D1174BD3F890200FE082
:10493000022393FAA3F3B3FA83F35B0943F0020370
:10494000032B03D1104BD3F8942001E00E4BDA690E
:10495000022393FAA3F3B3FA83F303F01F0322FABB
:1049600003F313F0010FCBD000E0032585B906490E
:10497000D1F8903023F44072636F1343C1F8903044
:1049800007E02E4605E000BF001002400070004026
:104990002E4627B1964A936D23F080539365236882
:1049A00013F0010F08D09249D1F8883023F00302A8
:1049B000A36A1343C1F88830236813F0020F08D0AC
:1049C0008B49D1F8883023F00C02E36A1343C1F815
:1049D0008830236813F0040F08D08549D1F8883057
:1049E00023F03002236B1343C1F88830236813F09F
:1049F000080F08D07E49D1F8883023F0C002636BDD
:104A00001343C1F88830236813F0100F08D0784999
:104A1000D1F8883023F44072A36B1343C1F8883077
:104A2000236813F0200F08D07149D1F8883023F49F
:104A30004062E36B1343C1F88830236813F4007FAE
:104A400008D06B49D1F8883023F44022E36C13433B
:104A5000C1F88830236813F4806F08D06449D1F816
:104A6000883023F44012236D1343C1F88830236843
:104A700013F0400F08D05E49D1F8883023F440523B
:104A8000236C1343C1F88830236813F0800F08D0DB
:104A90005749D1F8883023F44042636C1343C1F87E
:104AA0008830236813F4807F08D05149D1F88830CA
:104AB00023F44032A36C1343C1F88830236813F405
:104AC000005F19D04A49D1F8883023F04062E36D85
:104AD0001343C1F88830E36DB3F1006F04D1CB68A4
:104AE00043F48013CB6007E0B3F1806F04D1201D45
:104AF000FFF712FD00B10646236813F4002F19D00A
:104B00003B49D1F8883023F04062236E1343C1F84B
:104B10008830236EB3F1006F04D1CB6843F4801367
:104B2000CB6007E0B3F1806F04D1201DFFF7F4FCE8
:104B300000B10646236813F4802F19D02C49D1F810
:104B4000883023F04062636E1343C1F88830636E8F
:104B5000B3F1006F04D1CB6843F48013CB6007E05E
:104B6000B3F1806F04D1201DFFF7D6FC00B10646DB
:104B7000236813F4804F1DD01D49D1F8883023F0ED
:104B80004052A36E1343C1F88830A36EB3F1805F27
:104B900004D1201DFFF728FD48B90BE0B3F1005FF9
:104BA00008D104F11800FFF787FD10B902E00646AE
:104BB00000E00646236813F4004F08D00C49D1F8F2
:104BC000883023F08042E36E1343C1F888302368B5
:104BD00013F4803F08D00649D1F8883023F0004212
:104BE000236F1343C1F88830304602B0BDE8F0812E
:104BF000001002402DE9F04182B007460C461546F0
:104C00001E46FCF7D3FC804640E0B4F5C06F06D1E9
:104C10002DB9137BDBB28DF807309DF80730B6F164
:104C2000FF3F33D02EB1FCF7C1FCC8EB0000864239
:104C30002CD83A68536823F0E00353607B68B3F5DF
:104C4000827F0BD1BB68B3F5004F02D0B3F5806F04
:104C500004D13A68136823F040031360BB6AB3F5CC
:104C6000005F0BD13A68136823F400531B041B0C3C
:104C700013603A68136843F400531360012387F804
:104C80005D30002387F85C30032005E03A689368C4
:104C90002340AB42B9D1002002B0BDE8F08100BF93
:104CA0002DE9F04105460F4616461C46FCF77EFCF2
:104CB000804637E0B4F1FF3F34D02CB1FCF776FCEE
:104CC000C8EB000084422DD82A68536823F0E00323
:104CD00053606B68B3F5827F0BD1AB68B3F5004FBF
:104CE00002D0B3F5806F04D12A68136823F0400323
:104CF0001360AB6AB3F5005F0BD12A68136823F425
:104D000000531B041B0C13602A68136843F4005300
:104D10001360012385F85D30002385F85C300320A3
:104D2000BDE8F0812B689B683B40B342C2D10020B4
:104D3000BDE8F08138B504460D460B4600224FF41D
:104D4000C051FFF757FF28B1236E43F020032366BD
:104D500003230CE02B46002280212046FFF7A0FF12
:104D6000034620B1236E43F0200323660323184635
:104D700038BD00BF38B504460D464368B3F5827FA1
:104D80000BD18368B3F5004F02D0B3F5806F04D127
:104D90002268136823F0400313602B460022802111
:104DA0002046FFF77DFF034628B1236E43F0200322
:104DB0002366032318E06268B2F5827F14D1A268EB
:104DC000B2F5004F02D0B2F5806F0DD12B46002214
:104DD0004FF4C0612046FFF70DFF034620B1236E5C
:104DE00043F0200323660323184638BD00285AD019
:104DF00010B5044690F85D301BB980F85C3003F0C4
:104E000093FC022384F85D302268136823F040038A
:104E10001360E268B2F5E06F01D9002001E04FF4C1
:104E20008050B2F5706F04D0B2F5E06F01D000236E
:104E3000A362236B3BB9B2F5E06F02D9022323636F
:104E400001E00123236321686268A3681A43236990
:104E50001A4363691343A26902F400721A43E369B7
:104E60001A43236A1A43A36A13430B60236B022B72
:104E700004D12268136843F4006313602168638BD4
:104E800003F00403626A1343626B1A43E36813433B
:104E900003434B602368E26A1A6100202066012305
:104EA00084F85D3010BD0120704700BF2DE9F0414E
:104EB00082B00446884617461D46FCF777FB94F8F7
:104EC0005C30012B00F0BB800646012384F85C3087
:104ED00094F85D30012B40F09C80B8F1000F00F099
:104EE0009A80002F00F09980032384F85D3000231E
:104EF0002366C4F83880A787E7872364A4F8443082
:104F0000A4F84630A368B3F5004F04D122681368B3
:104F100043F480431360A36AB3F5005F0BD12268AA
:104F2000136823F400531B041B0C136022681368DE
:104F300043F40053136023681A6812F0400F03D142
:104F40001A6842F040021A60E368B3F5E06F19D8BE
:104F500040E023689A6812F0020F09D0A26B128811
:104F6000DA60A36B0233A363E38F013BE38709E0BD
:104F7000002D54D0B5F1FF3F04D0FCF717FB801B88
:104F800085424ED9E38F002BE3D126E02268916859
:104F900011F0020F14D0012B09D9A36B1B88D36029
:104FA000A36B0233A363E38F023BE38712E0A36B9F
:104FB000591CA1631B781373E38F013BE38709E05E
:104FC000002D30D0B5F1FF3F04D0FCF7EFFA801B85
:104FD00085422AD9E38F002BD8D1A36AB3F5005FAD
:104FE00004D12268136843F4805313602946204695
:104FF000FFF7A0FE08B120232366A3682BB923681E
:10500000DA6801929B680193019B236E7BB90020B3
:105010000EE002200CE001200AE0012008E003205D
:1050200006E0032004E0032002E0032000E001206A
:10503000012384F85D30002384F85C3000E0022016
:1050400002B0BDE8F08100BF2DE9F04383B0044613
:10505000884691461F460A9DFCF7A8FA94F85C30F2
:10506000012B00F055810646012384F85C3094F84A
:105070005D30012B40F03781B8F1000F00F0358131
:10508000B9F1000F00F03381002F00F032810523C9
:1050900084F85D3000232366C4F84090A4F846707D
:1050A000A4F84470C4F83880E787A787A36AB3F5EB
:1050B000005F0BD12268136823F400531B041B0C00
:1050C00013602268136843F400531360E368B3F578
:1050D000E06F03D8B4F84630012B05D92268536835
:1050E00023F48053536004E02268536843F48053F0
:1050F000536023681A6812F0400F03D11A6842F017
:1051000040021A60E368B3F5E06F36D892E0C3B1AD
:1051100023689A6812F0020F13D0A26B1288DA602B
:10512000A36B0233A363E38F013B9BB2E38743B9D5
:10513000A36AB3F5005F04D12268136843F4805377
:105140001360B4F846307BB123689A6812F0010FFF
:105150000AD0226CDB681380236C02332364B4F81A
:105160004630013BA4F84630B5F1FF3F05D0FCF7CF
:105170001DFA801B854240F2BE80E38F002BC6D112
:10518000B4F84620002AC2D15BE01BB322689168C4
:1051900011F0020F1ED0012B09D9A36B1B88D3601D
:1051A000A36B0233A363E38F023BE38707E0A36BA8
:1051B000591CA1631B781373E38F013BE387E38FD3
:1051C00043B9A36AB3F5005F04D12268136843F4BE
:1051D00080531360B4F8463023B32268916811F00D
:1051E000010F1FD0012B13D9236CD2681A80236CB6
:1051F00002332364B4F84630023B9BB2A4F8463035
:10520000012B0FD82268536843F48053536009E0A0
:10521000236C591C2164127B1A70B4F84630013B90
:10522000A4F84630B5F1FF3F04D0FCF7BFF9801B6E
:10523000854262D9E38F002BA7D1B4F84620002A1B
:10524000A3D1A36AB3F5005F34D12B4601221146E6
:105250002046FFF725FD28B1236E43F002032366A5
:1052600003264DE0E368B3F5706F07D12368DB6870
:105270009BB2ADF80630BDF806301BE023681B7BFF
:10528000ADF80630BDF80630236B022B12D12B4649
:10529000012211462046FFF703FD28B1236E43F09B
:1052A0000203236603262BE023681B7BADF8063040
:1052B000BDF8063023689A6812F0100F08D0226EED
:1052C00042F0020222664FF6EF729A60012600E079
:1052D000002629462046FFF72DFD08B1202323662E
:1052E000236E63B90CE002260AE0012608E00126DD
:1052F00006E0012604E0032602E0032600E0012682
:10530000012384F85D30002384F85C30304600E0EF
:10531000022003B0BDE8F0832DE9F04184B00446DB
:105320000E4690461D46FCF741F907466368B3F503
:10533000827F09D1A3683BB9009543463246314686
:105340002046FFF781FE1DE194F85C30012B00F050
:105350001881012384F85C3094F85D30012B40F013
:10536000F880002E00F0F780B8F1000F00F0F58013
:10537000042384F85D30002323662664A4F8448067
:10538000A4F84680A363A387E387A36AB3F5005F0D
:1053900010D12268136823F400531B041B0C136004
:1053A0002268136843F400531360B4F84630013B9D
:1053B000A4F84630E368B3F5E06F05D92268536876
:1053C00023F48053536004E02268536843F480530D
:1053D0005360A368B3F5004F04D12268136823F427
:1053E0008043136023681A6812F0400F03D11A68D3
:1053F00042F040021A60E368B3F5E06F1CD93BE06D
:1054000023689A6812F0010F0AD0226C511C2164A3
:105410001B7B1370B4F84630013BA4F846300BE018
:10542000002D00F09C80B5F1FF3F05D0FCF7BEF8E1
:10543000C01B854240F29580B4F84630002BDFD186
:105440001EE023689A6812F0010F0BD0226CDB6813
:105450001380236C02332364B4F84630013BA4F874
:10546000463009E0002D7ED0B5F1FF3F04D0FCF7B7
:105470009DF8C01B854278D9B4F84630002BE0D1A6
:10548000A36AB3F5005F4DD12268136843F48053DB
:1054900013602B46012211462046FFF701FC00282D
:1054A00065D1E368B3F5E06F04D9236C2268D26854
:1054B0001A8003E0236C2268127B1A702B460122AB
:1054C00011462046FFF7ECFB18B1022323660320A8
:1054D00050E0E368B3F5706F07D12368DB689BB2D7
:1054E000ADF80E30BDF80E301CE02268127BADF82E
:1054F0000E20BDF80E20B3F5E06F13D1236B022B05
:1055000010D12B46012211462046FFF7C9FB18B1E6
:105510000223236603202DE023681B7BADF80E30A9
:10552000BDF80E3029462046FFF724FC08B12023A1
:10553000236623689A6812F0100F06D0226E42F09C
:10554000020222664FF6EF729A60236E8BB900203A
:1055500010E002200EE001200CE001200AE0032010
:1055600008E0032006E0032004E0032002E003201B
:1055700000E00120012384F85D30002384F85C30D2
:1055800000E0022004B0BDE8F08100BF90F85C307C
:10559000012B7FD010B50446012380F85C3090F8D1
:1055A0005D30012B6DD100296DD0002A6DD0032311
:1055B00080F85D300023036681638287C2870364BD
:1055C000A0F84430A0F846308368B3F5004F04D10A
:1055D0000268136843F480431360A36AB3F5005F65
:1055E0000BD12268136823F400531B041B0C1360B7
:1055F0002268136843F400531360636D264A1A63EC
:10560000636D264ADA62636D254A5A6322685368DD
:1056100023F480435360E368B3F5E06F1AD8636DF9
:105620009B69B3F5806F15D1E38F13F0010F08D19B
:105630002268536823F480435360E38F5B08E38759
:1056400008E02268536843F480435360E38F5B08AB
:105650000133E3872268E38F0C32A16B606DFCF7A6
:1056600067F923681A6812F0400F03D11A6842F0F4
:1056700040021A602268536843F00203536000201E
:1056800004E0022002E0012000E00120002384F871
:105690005C3010BD02207047E5590008355A0008FB
:1056A000115A000838B590F85C40012C00F0DE80FB
:1056B0000446012084F85C0094F85D0001280BD0BA
:1056C0006568B5F5827F40F0C280A568002D40F086
:1056D000C080042840F0BF80002900F0BE80002A6E
:1056E00000F0BD80002B00F0BC80042802D0052013
:1056F00084F85D0000202066A163A387E38722640D
:10570000A4F84430A4F84630A36AB3F5005F0BD187
:105710002268136823F400531B041B0C13602268D7
:10572000136843F4005313602268536823F4C043A2
:105730005360E368B3F5E06F05D92268536823F43A
:105740008053536044E02268536843F480535360AD
:10575000636D9B69B3F5806F15D1A38F13F0010FB3
:1057600008D12268536823F480435360E38F5B08B9
:10577000E38708E02268536843F480435360E38F73
:105780005B080133E387A36D9B69B3F5806F1FD17D
:105790002268536823F480535360B4F8463013F002
:1057A000010F0AD12268536823F400535360B4F800
:1057B00046305B08A4F846300AE02268536843F498
:1057C00000535360B4F846305B080133A4F8463008
:1057D00094F85D30042B06D1A36D254A1A63A36D9E
:1057E000244ADA6205E0A36D234A1A63A36D234AB3
:1057F000DA62A36D224D5D632268536843F00103B2
:1058000053602168B4F84630226C0C31A06DFCF76F
:105810008FF8626D00231363626DD362636D5D6305
:105820002268E38F0C32A16B606DFCF781F823686E
:105830001A6812F0400F03D11A6842F040021A6051
:105840002268536843F00203536000200AE00220FC
:1058500008E0022006E0022004E0012002E001202E
:1058600000E00120002384F85C3038BD022038BD00
:10587000F55900088D5A0008055A0008655B0008B4
:10588000115A000890F85C30012B00F08B8010B5A5
:105890000446012380F85C3090F85D30012B74D110
:1058A000002974D0002A74D0042380F85D300023CE
:1058B00003660164A0F84420A0F846208363838730
:1058C000C3874368B3F5827F08D1836833B980F812
:1058D0005C3013460A46FFF7E5FE10BDA368B3F53A
:1058E000004F04D12268136823F480431360A36A35
:1058F000B3F5005F0BD12268136823F400531B0437
:105900001B0C13602268136843F400531360E368B0
:10591000B3F5E06F04D8A36D9B69B3F5806F3AD0FF
:105920002268536823F400535360E368B3F5E06FD3
:1059300005D92268536823F48053536004E0226839
:10594000536843F480535360A36D174A1A63A36DE1
:10595000164ADA62A36D164A5A632268536843F006
:10596000010353602168B4F84630226C0C31A06DFD
:10597000FBF7DEFF23681A6812F0400F0DD11A689A
:1059800042F040021A60002008E0022006E00120F8
:1059900004E0012002E0012000E00020002384F860
:1059A0005C3010BD02207047F55900088D5A000880
:1059B000115A000810B50446406D08B1FBF7DAFF34
:1059C000A06D08B1FBF7D6FF2268536823F00303EC
:1059D0005360012384F85D30002010BD704700BF84
:1059E000704700BF08B5806AFFF7FAFF08BD00BF27
:1059F000704700BF08B5806AFFF7FAFF08BD00BF17
:105A0000704700BF08B5806AFFF7FAFF08BD00BF06
:105A100008B5806A0268536823F003035360036E7D
:105A200043F010030366012380F85D3002F02CFA86
:105A300008BD00BF10B582B0846A03681B6813F00C
:105A4000200F1ED12268536823F0020353603221D5
:105A50002046FFF76FF908B120232366A3682BB90E
:105A60002368DA6801929B680193019B0023E38716
:105A7000012384F85D30236E1BB1204602F004FA46
:105A800002E0204602F0F6F902B010BD10B582B077
:105A9000846A03681B6813F0200F5ED1A36AB3F514
:105AA000005F30D13223012211462046FFF7F8F87B
:105AB00018B1236E43F002032366E368B3F5E06F89
:105AC00007D92368DB689BB2ADF80630BDF8063015
:105AD00019E023681B7BADF80630BDF80630236B58
